{
  "_format": "hh-sol-artifact-1",
  "contractName": "Sirius",
  "sourceName": "hardhat/contracts/Sirius.sol",
  "abi": [
    {
      "inputs": [
        {
          "internalType": "address",
          "name": "",
          "type": "address"
        },
        {
          "internalType": "uint256",
          "name": "",
          "type": "uint256"
        }
      ],
      "name": "activeKeywords",
      "outputs": [
        {
          "internalType": "string",
          "name": "",
          "type": "string"
        }
      ],
      "stateMutability": "view",
      "type": "function"
    },
    {
      "inputs": [
        {
          "internalType": "address",
          "name": "_admin",
          "type": "address"
        }
      ],
      "name": "addAdmin",
      "outputs": [],
      "stateMutability": "nonpayable",
      "type": "function"
    },
    {
      "inputs": [
        {
          "internalType": "string",
          "name": "_name",
          "type": "string"
        },
        {
          "internalType": "string",
          "name": "_description",
          "type": "string"
        },
        {
          "internalType": "string",
          "name": "_keyword",
          "type": "string"
        },
        {
          "internalType": "string",
          "name": "_url",
          "type": "string"
        },
        {
          "internalType": "string",
          "name": "_image",
          "type": "string"
        }
      ],
      "name": "addCompany",
      "outputs": [],
      "stateMutability": "payable",
      "type": "function"
    },
    {
      "inputs": [
        {
          "internalType": "string",
          "name": "",
          "type": "string"
        }
      ],
      "name": "codeToMessage",
      "outputs": [
        {
          "internalType": "string",
          "name": "name",
          "type": "string"
        },
        {
          "internalType": "string",
          "name": "link",
          "type": "string"
        },
        {
          "internalType": "string",
          "name": "hashedCode",
          "type": "string"
        }
      ],
      "stateMutability": "view",
      "type": "function"
    },
    {
      "inputs": [
        {
          "internalType": "string",
          "name": "",
          "type": "string"
        }
      ],
      "name": "companyRemoved",
      "outputs": [
        {
          "internalType": "bool",
          "name": "",
          "type": "bool"
        }
      ],
      "stateMutability": "view",
      "type": "function"
    },
    {
      "inputs": [
        {
          "internalType": "address",
          "name": "_user",
          "type": "address"
        },
        {
          "internalType": "uint256",
          "name": "_scoreDecrement",
          "type": "uint256"
        }
      ],
      "name": "decreaseUserScore",
      "outputs": [],
      "stateMutability": "nonpayable",
      "type": "function"
    },
    {
      "inputs": [
        {
          "internalType": "address",
          "name": "",
          "type": "address"
        },
        {
          "internalType": "string",
          "name": "",
          "type": "string"
        }
      ],
      "name": "escrow",
      "outputs": [
        {
          "internalType": "uint256",
          "name": "",
          "type": "uint256"
        }
      ],
      "stateMutability": "view",
      "type": "function"
    },
    {
      "inputs": [
        {
          "internalType": "string",
          "name": "_name",
          "type": "string"
        }
      ],
      "name": "getInterestedUsers",
      "outputs": [
        {
          "internalType": "address[]",
          "name": "",
          "type": "address[]"
        }
      ],
      "stateMutability": "view",
      "type": "function"
    },
    {
      "inputs": [
        {
          "internalType": "string",
          "name": "",
          "type": "string"
        },
        {
          "internalType": "uint256",
          "name": "",
          "type": "uint256"
        }
      ],
      "name": "interestedUsers",
      "outputs": [
        {
          "internalType": "address",
          "name": "",
          "type": "address"
        }
      ],
      "stateMutability": "view",
      "type": "function"
    },
    {
      "inputs": [
        {
          "internalType": "string",
          "name": "",
          "type": "string"
        },
        {
          "internalType": "uint256",
          "name": "",
          "type": "uint256"
        }
      ],
      "name": "keywords",
      "outputs": [
        {
          "internalType": "address",
          "name": "companyAdmin",
          "type": "address"
        },
        {
          "internalType": "int256",
          "name": "priceRating",
          "type": "int256"
        },
        {
          "internalType": "int256",
          "name": "accuracyRating",
          "type": "int256"
        },
        {
          "internalType": "int256",
          "name": "serviceRating",
          "type": "int256"
        },
        {
          "internalType": "string",
          "name": "keyword",
          "type": "string"
        },
        {
          "internalType": "string",
          "name": "name",
          "type": "string"
        },
        {
          "internalType": "string",
          "name": "description",
          "type": "string"
        },
        {
          "internalType": "string",
          "name": "url",
          "type": "string"
        },
        {
          "internalType": "string",
          "name": "image",
          "type": "string"
        }
      ],
      "stateMutability": "view",
      "type": "function"
    },
    {
      "inputs": [
        {
          "internalType": "string",
          "name": "",
          "type": "string"
        }
      ],
      "name": "nameToCompany",
      "outputs": [
        {
          "internalType": "address",
          "name": "companyAdmin",
          "type": "address"
        },
        {
          "internalType": "int256",
          "name": "priceRating",
          "type": "int256"
        },
        {
          "internalType": "int256",
          "name": "accuracyRating",
          "type": "int256"
        },
        {
          "internalType": "int256",
          "name": "serviceRating",
          "type": "int256"
        },
        {
          "internalType": "string",
          "name": "keyword",
          "type": "string"
        },
        {
          "internalType": "string",
          "name": "name",
          "type": "string"
        },
        {
          "internalType": "string",
          "name": "description",
          "type": "string"
        },
        {
          "internalType": "string",
          "name": "url",
          "type": "string"
        },
        {
          "internalType": "string",
          "name": "image",
          "type": "string"
        }
      ],
      "stateMutability": "view",
      "type": "function"
    },
    {
      "inputs": [
        {
          "internalType": "string",
          "name": "",
          "type": "string"
        },
        {
          "internalType": "address",
          "name": "",
          "type": "address"
        },
        {
          "internalType": "uint256",
          "name": "",
          "type": "uint256"
        }
      ],
      "name": "pledges",
      "outputs": [
        {
          "internalType": "string",
          "name": "name",
          "type": "string"
        },
        {
          "internalType": "bool",
          "name": "rated",
          "type": "bool"
        },
        {
          "internalType": "bool",
          "name": "codeVerified",
          "type": "bool"
        }
      ],
      "stateMutability": "view",
      "type": "function"
    },
    {
      "inputs": [
        {
          "internalType": "string",
          "name": "_name",
          "type": "string"
        },
        {
          "internalType": "int256",
          "name": "_accuracy",
          "type": "int256"
        },
        {
          "internalType": "int256",
          "name": "_price",
          "type": "int256"
        },
        {
          "internalType": "int256",
          "name": "_service",
          "type": "int256"
        }
      ],
      "name": "rateCompany",
      "outputs": [],
      "stateMutability": "nonpayable",
      "type": "function"
    },
    {
      "inputs": [
        {
          "internalType": "string",
          "name": "_name",
          "type": "string"
        }
      ],
      "name": "removeCompany",
      "outputs": [],
      "stateMutability": "nonpayable",
      "type": "function"
    },
    {
      "inputs": [
        {
          "internalType": "string",
          "name": "_keyword",
          "type": "string"
        }
      ],
      "name": "setKeyword",
      "outputs": [],
      "stateMutability": "payable",
      "type": "function"
    },
    {
      "inputs": [
        {
          "internalType": "address",
          "name": "_client",
          "type": "address"
        },
        {
          "internalType": "string",
          "name": "_link",
          "type": "string"
        },
        {
          "internalType": "string",
          "name": "_hashedCode",
          "type": "string"
        },
        {
          "internalType": "string",
          "name": "_name",
          "type": "string"
        },
        {
          "internalType": "string",
          "name": "_keyword",
          "type": "string"
        }
      ],
      "name": "setMessage",
      "outputs": [],
      "stateMutability": "nonpayable",
      "type": "function"
    },
    {
      "inputs": [
        {
          "components": [
            {
              "internalType": "address",
              "name": "companyAdmin",
              "type": "address"
            },
            {
              "internalType": "int256",
              "name": "priceRating",
              "type": "int256"
            },
            {
              "internalType": "int256",
              "name": "accuracyRating",
              "type": "int256"
            },
            {
              "internalType": "int256",
              "name": "serviceRating",
              "type": "int256"
            },
            {
              "internalType": "string",
              "name": "keyword",
              "type": "string"
            },
            {
              "internalType": "string",
              "name": "name",
              "type": "string"
            },
            {
              "internalType": "string",
              "name": "description",
              "type": "string"
            },
            {
              "internalType": "string",
              "name": "url",
              "type": "string"
            },
            {
              "internalType": "string",
              "name": "image",
              "type": "string"
            }
          ],
          "internalType": "struct Sirius.Company[]",
          "name": "_companies",
          "type": "tuple[]"
        }
      ],
      "name": "setPledges",
      "outputs": [],
      "stateMutability": "nonpayable",
      "type": "function"
    },
    {
      "inputs": [
        {
          "internalType": "address",
          "name": "",
          "type": "address"
        }
      ],
      "name": "userScore",
      "outputs": [
        {
          "internalType": "uint256",
          "name": "",
          "type": "uint256"
        }
      ],
      "stateMutability": "view",
      "type": "function"
    },
    {
      "inputs": [
        {
          "internalType": "address",
          "name": "",
          "type": "address"
        },
        {
          "internalType": "string",
          "name": "",
          "type": "string"
        },
        {
          "internalType": "uint256",
          "name": "",
          "type": "uint256"
        }
      ],
      "name": "userToMessages",
      "outputs": [
        {
          "internalType": "string",
          "name": "name",
          "type": "string"
        },
        {
          "internalType": "string",
          "name": "link",
          "type": "string"
        },
        {
          "internalType": "string",
          "name": "hashedCode",
          "type": "string"
        }
      ],
      "stateMutability": "view",
      "type": "function"
    },
    {
      "inputs": [
        {
          "internalType": "string",
          "name": "_word",
          "type": "string"
        },
        {
          "internalType": "string",
          "name": "_hashedCode",
          "type": "string"
        }
      ],
      "name": "verifyCode",
      "outputs": [],
      "stateMutability": "view",
      "type": "function"
    },
    {
      "inputs": [
        {
          "internalType": "string",
          "name": "_keyword",
          "type": "string"
        }
      ],
      "name": "withdrawFromEscrow",
      "outputs": [],
      "stateMutability": "nonpayable",
      "type": "function"
    }
  ],
  "bytecode": "0x6080604052662386f26fc1000060005534801561001b57600080fd5b5061377d8061002b6000396000f3fe60806040526004361061012a5760003560e01c80636e589278116100ab578063ab7fed171161006f578063ab7fed17146103c1578063b52c9257146103f0578063ba4359e614610410578063c4b7148314610430578063dd833b5b14610450578063ffcee0a11461047057600080fd5b80636e5892781461032e5780637048027514610341578063989a2e4a14610361578063aa798e2014610374578063ab1e0ef0146103a157600080fd5b806338ee821b116100f257806338ee821b1461025a5780634ea71851146102875780635c8e4e5a146102bf578063632a8d64146102ee578063699d62631461030e57600080fd5b80630968ce011461012f5780630c5b537a1461018b5780632378a880146101c0578063240550a6146101ed5780632c9f995414610238575b600080fd5b34801561013b57600080fd5b5061017861014a366004612de0565b6002602090815260009283526040909220815180830184018051928152908401929093019190912091525481565b6040519081526020015b60405180910390f35b34801561019757600080fd5b506101ab6101a6366004612e2d565b610490565b60405161018299989796959493929190612ec1565b3480156101cc57600080fd5b506101e06101db366004612e2d565b61079b565b6040516101829190612f56565b3480156101f957600080fd5b50610228610208366004612e2d565b805160208183018101805160078252928201919093012091525460ff1681565b6040519015158152602001610182565b34801561024457600080fd5b50610258610253366004612e2d565b610818565b005b34801561026657600080fd5b50610178610275366004612fa3565b60056020526000908152604090205481565b34801561029357600080fd5b506102a76102a2366004612fc5565b610c6e565b6040516001600160a01b039091168152602001610182565b3480156102cb57600080fd5b506102df6102da366004613009565b610cb5565b6040516101829392919061305f565b3480156102fa57600080fd5b50610258610309366004613089565b610da1565b34801561031a57600080fd5b506101ab610329366004612fc5565b610f54565b61025861033c366004612e2d565b610fc6565b34801561034d57600080fd5b5061025861035c366004612fa3565b611063565b61025861036f3660046130dc565b6110d5565b34801561038057600080fd5b5061039461038f3660046131ad565b611306565b60405161018291906131d7565b3480156103ad57600080fd5b506102586103bc3660046131ad565b6113bf565b3480156103cd57600080fd5b506103e16103dc366004612e2d565b61143b565b604051610182939291906131ea565b3480156103fc57600080fd5b5061025861040b36600461322d565b611600565b34801561041c57600080fd5b5061025861042b366004613286565b611dac565b34801561043c57600080fd5b5061025861044b366004613445565b611f00565b34801561045c57600080fd5b506103e161046b366004613482565b612009565b34801561047c57600080fd5b5061025861048b366004612e2d565b612065565b805160208183018101805160048083529383019290940191909120929052815460018301546002840154600385015493850180546001600160a01b0390941695929491939192916104e0906134d8565b80601f016020809104026020016040519081016040528092919081815260200182805461050c906134d8565b80156105595780601f1061052e57610100808354040283529160200191610559565b820191906000526020600020905b81548152906001019060200180831161053c57829003601f168201915b50505050509080600501805461056e906134d8565b80601f016020809104026020016040519081016040528092919081815260200182805461059a906134d8565b80156105e75780601f106105bc576101008083540402835291602001916105e7565b820191906000526020600020905b8154815290600101906020018083116105ca57829003601f168201915b5050505050908060060180546105fc906134d8565b80601f0160208091040260200160405190810160405280929190818152602001828054610628906134d8565b80156106755780601f1061064a57610100808354040283529160200191610675565b820191906000526020600020905b81548152906001019060200180831161065857829003601f168201915b50505050509080600701805461068a906134d8565b80601f01602080910402602001604051908101604052809291908181526020018280546106b6906134d8565b80156107035780601f106106d857610100808354040283529160200191610703565b820191906000526020600020905b8154815290600101906020018083116106e657829003601f168201915b505050505090806008018054610718906134d8565b80601f0160208091040260200160405190810160405280929190818152602001828054610744906134d8565b80156107915780601f1061076657610100808354040283529160200191610791565b820191906000526020600020905b81548152906001019060200180831161077457829003601f168201915b5050505050905089565b606060006009836040516107af9190613512565b908152604080519182900360209081018320805480830285018301909352828452919083018282801561080b57602002820191906000526020600020905b81546001600160a01b031681526001909101906020018083116107ed575b5093979650505050505050565b6000610823826125eb565b905080516000036108685760405162461bcd60e51b815260206004820152600a6024820152696e6f20706c656467657360b01b60448201526064015b60405180910390fd5b61087182612727565b6108ac5760405162461bcd60e51b815260206004820152600c60248201526b6e6f7420636f6d706c65746560a01b604482015260640161085f565b3360009081526002602052604080822090516108c9908590613512565b908152604080519182900360209081018320543360009081526002909252919020909250906108f9908590613512565b908152604051908190036020018120600090819055339183156108fc0291849190818181858888f19350505050158015610937573d6000803e3d6000fd5b50336000908152600a60205260408082209051610955908690613512565b9081526020016040518091039020805480602002602001604051908101604052809291908181526020016000905b82821015610b6b57838290600052602060002090600302016040518060600160405290816000820180546109b6906134d8565b80601f01602080910402602001604051908101604052809291908181526020018280546109e2906134d8565b8015610a2f5780601f10610a0457610100808354040283529160200191610a2f565b820191906000526020600020905b815481529060010190602001808311610a1257829003601f168201915b50505050508152602001600182018054610a48906134d8565b80601f0160208091040260200160405190810160405280929190818152602001828054610a74906134d8565b8015610ac15780601f10610a9657610100808354040283529160200191610ac1565b820191906000526020600020905b815481529060010190602001808311610aa457829003601f168201915b50505050508152602001600282018054610ada906134d8565b80601f0160208091040260200160405190810160405280929190818152602001828054610b06906134d8565b8015610b535780601f10610b2857610100808354040283529160200191610b53565b820191906000526020600020905b815481529060010190602001808311610b3657829003601f168201915b50505050508152505081526020019060010190610983565b50505050905060005b81518111610bfb576000828281518110610b9057610b9061352e565b6020026020010151905060068160400151604051610bae9190613512565b9081526040519081900360200190206000610bc98282612b4f565b610bd7600183016000612b4f565b610be5600283016000612b4f565b5050508080610bf39061355a565b915050610b74565b50336000908152600a6020526040908190209051610c1a908690613512565b90815260200160405180910390206000610c349190612b8c565b600b84604051610c449190613512565b908152604080516020928190038301902033600090815292528120610c6891612bad565b50505050565b81516020818401810180516009825292820191850191909120919052805482908110610c9957600080fd5b6000918252602090912001546001600160a01b03169150829050565b8251602081850181018051600b82529282018287012092905252600082815260409020805482908110610ce757600080fd5b90600052602060002090600202016000925092505050806000018054610d0c906134d8565b80601f0160208091040260200160405190810160405280929190818152602001828054610d38906134d8565b8015610d855780601f10610d5a57610100808354040283529160200191610d85565b820191906000526020600020905b815481529060010190602001808311610d6857829003601f168201915b5050506001909301549192505060ff8082169161010090041683565b6000610dac856127b5565b905060008482604001818151610dc29190613573565b91508181525012610de3578381604001818151610ddf9190613573565b9052505b60008382602001818151610df79190613573565b91508181525012610e18578281602001818151610e149190613573565b9052505b60008282606001818151610e2c9190613573565b91508181525012610e4d578181606001818151610e499190613573565b9052505b6000600b8260800151604051610e639190613512565b90815260408051602092819003830190203360009081529252812091505b81548111610f4b5786604051602001610e9a9190613512565b60405160208183030381529060405280519060200120828281548110610ec257610ec261352e565b9060005260206000209060020201600001604051602001610ee391906135b4565b6040516020818303038152906040528051906020012003610f39576001828281548110610f1257610f1261352e565b60009182526020909120600290910201600101805460ff1916911515919091179055610f4b565b80610f438161355a565b915050610e81565b50505050505050565b81516020818401810180516003825292820191850191909120919052805482908110610f7f57600080fd5b6000918252602090912060099091020180546001820154600283015460038401546004850180546001600160a01b039095169750929550909390929091906104e0906134d8565b60005434146110055760405162461bcd60e51b815260206004820152600b60248201526a496e76616c69642066656560a81b604482015260640161085f565b3360009081526008602090815260408220805460018101825590835291200161102e8282613671565b5033600090815260026020526040908190209051349190611050908490613512565b9081526040519081900360200190205550565b3360009081526001602052604090205460ff166110ae5760405162461bcd60e51b81526020600482015260096024820152682737ba1030b236b4b760b91b604482015260640161085f565b6001600160a01b03166000908152600160208190526040909120805460ff19169091179055565b6000604051806101200160405280336001600160a01b03168152602001600081526020016000815260200160008152602001858152602001878152602001868152602001848152602001838152509050806004876040516111369190613512565b9081526040805160209281900383019020835181546001600160a01b0319166001600160a01b03909116178155918301516001830155820151600282015560608201516003820155608082015160048201906111929082613671565b5060a082015160058201906111a79082613671565b5060c082015160068201906111bc9082613671565b5060e082015160078201906111d19082613671565b5061010082015160088201906111e79082613671565b509050506003846040516111fb9190613512565b9081526040805160209281900383019020805460018082018355600092835291849020855160099092020180546001600160a01b0319166001600160a01b039092169190911781559284015190830155820151600282015560608201516003820155608082015182919060048201906112749082613671565b5060a082015160058201906112899082613671565b5060c0820151600682019061129e9082613671565b5060e082015160078201906112b39082613671565b5061010082015160088201906112c99082613671565b50505060006007876040516112de9190613512565b908152604051908190036020019020805491151560ff19909216919091179055505050505050565b6008602052816000526040600020818154811061132257600080fd5b9060005260206000200160009150915050805461133e906134d8565b80601f016020809104026020016040519081016040528092919081815260200182805461136a906134d8565b80156113b75780601f1061138c576101008083540402835291602001916113b7565b820191906000526020600020905b81548152906001019060200180831161139a57829003601f168201915b505050505081565b3360009081526001602052604090205460ff1661140a5760405162461bcd60e51b81526020600482015260096024820152682737ba1030b236b4b760b91b604482015260640161085f565b6001600160a01b03821660009081526005602052604081208054839290611432908490613730565b90915550505050565b8051602081830181018051600682529282019190930120915280548190611461906134d8565b80601f016020809104026020016040519081016040528092919081815260200182805461148d906134d8565b80156114da5780601f106114af576101008083540402835291602001916114da565b820191906000526020600020905b8154815290600101906020018083116114bd57829003601f168201915b5050505050908060010180546114ef906134d8565b80601f016020809104026020016040519081016040528092919081815260200182805461151b906134d8565b80156115685780601f1061153d57610100808354040283529160200191611568565b820191906000526020600020905b81548152906001019060200180831161154b57829003601f168201915b50505050509080600201805461157d906134d8565b80601f01602080910402602001604051908101604052809291908181526020018280546115a9906134d8565b80156115f65780601f106115cb576101008083540402835291602001916115f6565b820191906000526020600020905b8154815290600101906020018083116115d957829003601f168201915b5050505050905083565b60006006826040516116129190613512565b908152602001604051809103902060405180606001604052908160008201805461163b906134d8565b80601f0160208091040260200160405190810160405280929190818152602001828054611667906134d8565b80156116b45780601f10611689576101008083540402835291602001916116b4565b820191906000526020600020905b81548152906001019060200180831161169757829003601f168201915b505050505081526020016001820180546116cd906134d8565b80601f01602080910402602001604051908101604052809291908181526020018280546116f9906134d8565b80156117465780601f1061171b57610100808354040283529160200191611746565b820191906000526020600020905b81548152906001019060200180831161172957829003601f168201915b5050505050815260200160028201805461175f906134d8565b80601f016020809104026020016040519081016040528092919081815260200182805461178b906134d8565b80156117d85780601f106117ad576101008083540402835291602001916117d8565b820191906000526020600020905b8154815290600101906020018083116117bb57829003601f168201915b505050505081525050905080604001516040516020016117f89190613512565b604051602081830303815290604052805190602001208360405160200161181f9190613512565b604051602081830303815290604052805190602001201461186f5760405162461bcd60e51b815260206004820152600a60248201526977726f6e6720636f646560b01b604482015260640161085f565b6000600482600001516040516118859190613512565b9081526040805191829003602090810183206101208401835280546001600160a01b03168452600181015491840191909152600281015491830191909152600381015460608301526004810180546080840191906118e2906134d8565b80601f016020809104026020016040519081016040528092919081815260200182805461190e906134d8565b801561195b5780601f106119305761010080835404028352916020019161195b565b820191906000526020600020905b81548152906001019060200180831161193e57829003601f168201915b50505050508152602001600582018054611974906134d8565b80601f01602080910402602001604051908101604052809291908181526020018280546119a0906134d8565b80156119ed5780601f106119c2576101008083540402835291602001916119ed565b820191906000526020600020905b8154815290600101906020018083116119d057829003601f168201915b50505050508152602001600682018054611a06906134d8565b80601f0160208091040260200160405190810160405280929190818152602001828054611a32906134d8565b8015611a7f5780601f10611a5457610100808354040283529160200191611a7f565b820191906000526020600020905b815481529060010190602001808311611a6257829003601f168201915b50505050508152602001600782018054611a98906134d8565b80601f0160208091040260200160405190810160405280929190818152602001828054611ac4906134d8565b8015611b115780601f10611ae657610100808354040283529160200191611b11565b820191906000526020600020905b815481529060010190602001808311611af457829003601f168201915b50505050508152602001600882018054611b2a906134d8565b80601f0160208091040260200160405190810160405280929190818152602001828054611b56906134d8565b8015611ba35780601f10611b7857610100808354040283529160200191611ba3565b820191906000526020600020905b815481529060010190602001808311611b8657829003601f168201915b50505050508152505090506000600b8260800151604051611bc49190613512565b908152604080519182900360209081018320336000908152908252828120805480840286018401909452838552929184015b82821015611ce05783829060005260206000209060020201604051806060016040529081600082018054611c29906134d8565b80601f0160208091040260200160405190810160405280929190818152602001828054611c55906134d8565b8015611ca25780601f10611c7757610100808354040283529160200191611ca2565b820191906000526020600020905b815481529060010190602001808311611c8557829003601f168201915b505050918352505060019182015460ff8082161515602080850191909152610100909204161515604090920191909152918352929092019101611bf6565b50505050905060005b81518111611da4578351604051611d039190602001613512565b60405160208183030381529060405280519060200120828281518110611d2b57611d2b61352e565b602002602001015160000151604051602001611d479190613512565b6040516020818303038152906040528051906020012003611d92576001828281518110611d7657611d7661352e565b6020908102919091010151901515604090910152505050505050565b80611d9c8161355a565b915050611ce9565b505050505050565b336000908152600860205260408120825190918391611dcd57611dcd61352e565b6020908102919091018101516080015182546001810184556000938452919092200190611dfa9082613671565b5060005b81518111611efc5760006040518060600160405280848481518110611e2557611e2561352e565b602002602001015160a001518152602001600015158152602001600015158152509050600b838381518110611e5c57611e5c61352e565b602002602001015160800151604051611e759190613512565b9081526040805160209281900383019020336000908152908352908120805460018101825590825291902082518392600202909101908190611eb79082613671565b5060208201516001909101805460409093015115156101000261ff00199215159290921661ffff19909316929092171790555080611ef48161355a565b915050611dfe565b5050565b6040805160608101825283815260208082018790528183018690526001600160a01b0388166000908152600a9091528290209151909190611f42908490613512565b908152604051602091819003820190208054600181018255600091825291902082518392600302909101908190611f799082613671565b5060208201516001820190611f8e9082613671565b5060408201516002820190611fa39082613671565b50505080600685604051611fb79190613512565b90815260405190819003602001902081518190611fd49082613671565b5060208201516001820190611fe99082613671565b5060408201516002820190611ffe9082613671565b505050505050505050565b600a602090815260008481526040902083518085018301805192815290830192850192909220915280548290811061204057600080fd5b90600052602060002090600302016000925092505050806000018054611461906134d8565b6000612070826127b5565b80519091506001600160a01b031633148061209a57503360009081526001602052604090205460ff165b6120d45760405162461bcd60e51b815260206004820152600b60248201526a61646d696e73206f6e6c7960a81b604482015260640161085f565b60048160a001516040516120e89190613512565b90815260405190819003602001902080546001600160a01b031916815560006001820181905560028201819055600382018190556121296004830182612b4f565b612137600583016000612b4f565b612145600683016000612b4f565b612153600783016000612b4f565b612161600883016000612b4f565b50506000600382608001516040516121799190613512565b9081526020016040518091039020805480602002602001604051908101604052809291908181526020016000905b828210156124e957600084815260209081902060408051610120810182526009860290920180546001600160a01b0316835260018101549383019390935260028301549082015260038201546060820152600482018054919291608084019190612210906134d8565b80601f016020809104026020016040519081016040528092919081815260200182805461223c906134d8565b80156122895780601f1061225e57610100808354040283529160200191612289565b820191906000526020600020905b81548152906001019060200180831161226c57829003601f168201915b505050505081526020016005820180546122a2906134d8565b80601f01602080910402602001604051908101604052809291908181526020018280546122ce906134d8565b801561231b5780601f106122f05761010080835404028352916020019161231b565b820191906000526020600020905b8154815290600101906020018083116122fe57829003601f168201915b50505050508152602001600682018054612334906134d8565b80601f0160208091040260200160405190810160405280929190818152602001828054612360906134d8565b80156123ad5780601f10612382576101008083540402835291602001916123ad565b820191906000526020600020905b81548152906001019060200180831161239057829003601f168201915b505050505081526020016007820180546123c6906134d8565b80601f01602080910402602001604051908101604052809291908181526020018280546123f2906134d8565b801561243f5780601f106124145761010080835404028352916020019161243f565b820191906000526020600020905b81548152906001019060200180831161242257829003601f168201915b50505050508152602001600882018054612458906134d8565b80601f0160208091040260200160405190810160405280929190818152602001828054612484906134d8565b80156124d15780601f106124a6576101008083540402835291602001916124d1565b820191906000526020600020905b8154815290600101906020018083116124b457829003601f168201915b505050505081525050815260200190600101906121a7565b50505050905060005b815181116125b3578260a0015160405160200161250f9190613512565b604051602081830303815290604052805190602001208282815181106125375761253761352e565b602002602001015160a001516040516020016125539190613512565b60405160208183030381529060405280519060200120036125a157600383608001516040516125829190613512565b9081526020016040518091039020600061259c9190612bce565b6125b3565b806125ab8161355a565b9150506124f2565b5060016007846040516125c69190613512565b908152604051908190036020019020805491151560ff19909216919091179055505050565b60606000600b836040516125ff9190613512565b908152604080519182900360209081018320336000908152908252828120805480840286018401909452838552929184015b8282101561271b5783829060005260206000209060020201604051806060016040529081600082018054612664906134d8565b80601f0160208091040260200160405190810160405280929190818152602001828054612690906134d8565b80156126dd5780601f106126b2576101008083540402835291602001916126dd565b820191906000526020600020905b8154815290600101906020018083116126c057829003601f168201915b505050918352505060019182015460ff8082161515602080850191909152610100909204161515604090920191909152918352929092019101612631565b50929695505050505050565b600080612733836125eb565b905060005b815181116127ab578181815181106127525761275261352e565b6020908102919091018101510151158061278a57508181815181106127795761277961352e565b602090810291909101015160400151155b15612799575060009392505050565b806127a38161355a565b915050612738565b5060019392505050565b61280d60405180610120016040528060006001600160a01b0316815260200160008152602001600081526020016000815260200160608152602001606081526020016060815260200160608152602001606081525090565b600060048360405161281f9190613512565b9081526040805191829003602090810183206101208401835280546001600160a01b031684526001810154918401919091526002810154918301919091526003810154606083015260048101805460808401919061287c906134d8565b80601f01602080910402602001604051908101604052809291908181526020018280546128a8906134d8565b80156128f55780601f106128ca576101008083540402835291602001916128f5565b820191906000526020600020905b8154815290600101906020018083116128d857829003601f168201915b5050505050815260200160058201805461290e906134d8565b80601f016020809104026020016040519081016040528092919081815260200182805461293a906134d8565b80156129875780601f1061295c57610100808354040283529160200191612987565b820191906000526020600020905b81548152906001019060200180831161296a57829003601f168201915b505050505081526020016006820180546129a0906134d8565b80601f01602080910402602001604051908101604052809291908181526020018280546129cc906134d8565b8015612a195780601f106129ee57610100808354040283529160200191612a19565b820191906000526020600020905b8154815290600101906020018083116129fc57829003601f168201915b50505050508152602001600782018054612a32906134d8565b80601f0160208091040260200160405190810160405280929190818152602001828054612a5e906134d8565b8015612aab5780601f10612a8057610100808354040283529160200191612aab565b820191906000526020600020905b815481529060010190602001808311612a8e57829003601f168201915b50505050508152602001600882018054612ac4906134d8565b80601f0160208091040260200160405190810160405280929190818152602001828054612af0906134d8565b8015612b3d5780601f10612b1257610100808354040283529160200191612b3d565b820191906000526020600020905b815481529060010190602001808311612b2057829003601f168201915b50505091909252509195945050505050565b508054612b5b906134d8565b6000825580601f10612b6b575050565b601f016020900490600052602060002090810190612b899190612bef565b50565b5080546000825560030290600052602060002090810190612b899190612c08565b5080546000825560020290600052602060002090810190612b899190612c41565b5080546000825560090290600052602060002090810190612b899190612c6b565b5b80821115612c045760008155600101612bf0565b5090565b80821115612c04576000612c1c8282612b4f565b612c2a600183016000612b4f565b612c38600283016000612b4f565b50600301612c08565b80821115612c04576000612c558282612b4f565b5060018101805461ffff19169055600201612c41565b80821115612c045780546001600160a01b03191681556000600182018190556002820181905560038201819055612ca56004830182612b4f565b612cb3600583016000612b4f565b612cc1600683016000612b4f565b612ccf600783016000612b4f565b612cdd600883016000612b4f565b50600901612c6b565b80356001600160a01b0381168114612cfd57600080fd5b919050565b634e487b7160e01b600052604160045260246000fd5b60405161012081016001600160401b0381118282101715612d3b57612d3b612d02565b60405290565b604051601f8201601f191681016001600160401b0381118282101715612d6957612d69612d02565b604052919050565b600082601f830112612d8257600080fd5b81356001600160401b03811115612d9b57612d9b612d02565b612dae601f8201601f1916602001612d41565b818152846020838601011115612dc357600080fd5b816020850160208301376000918101602001919091529392505050565b60008060408385031215612df357600080fd5b612dfc83612ce6565b915060208301356001600160401b03811115612e1757600080fd5b612e2385828601612d71565b9150509250929050565b600060208284031215612e3f57600080fd5b81356001600160401b03811115612e5557600080fd5b612e6184828501612d71565b949350505050565b60005b83811015612e84578181015183820152602001612e6c565b83811115610c685750506000910152565b60008151808452612ead816020860160208601612e69565b601f01601f19169290920160200192915050565b600061012060018060a01b038c1683528a6020840152896040840152886060840152806080840152612ef581840189612e95565b905082810360a0840152612f098188612e95565b905082810360c0840152612f1d8187612e95565b905082810360e0840152612f318186612e95565b9050828103610100840152612f468185612e95565b9c9b505050505050505050505050565b6020808252825182820181905260009190848201906040850190845b81811015612f975783516001600160a01b031683529284019291840191600101612f72565b50909695505050505050565b600060208284031215612fb557600080fd5b612fbe82612ce6565b9392505050565b60008060408385031215612fd857600080fd5b82356001600160401b03811115612fee57600080fd5b612ffa85828601612d71565b95602094909401359450505050565b60008060006060848603121561301e57600080fd5b83356001600160401b0381111561303457600080fd5b61304086828701612d71565b93505061304f60208501612ce6565b9150604084013590509250925092565b6060815260006130726060830186612e95565b931515602083015250901515604090910152919050565b6000806000806080858703121561309f57600080fd5b84356001600160401b038111156130b557600080fd5b6130c187828801612d71565b97602087013597506040870135966060013595509350505050565b600080600080600060a086880312156130f457600080fd5b85356001600160401b038082111561310b57600080fd5b61311789838a01612d71565b9650602088013591508082111561312d57600080fd5b61313989838a01612d71565b9550604088013591508082111561314f57600080fd5b61315b89838a01612d71565b9450606088013591508082111561317157600080fd5b61317d89838a01612d71565b9350608088013591508082111561319357600080fd5b506131a088828901612d71565b9150509295509295909350565b600080604083850312156131c057600080fd5b6131c983612ce6565b946020939093013593505050565b602081526000612fbe6020830184612e95565b6060815260006131fd6060830186612e95565b828103602084015261320f8186612e95565b905082810360408401526132238185612e95565b9695505050505050565b6000806040838503121561324057600080fd5b82356001600160401b038082111561325757600080fd5b61326386838701612d71565b9350602085013591508082111561327957600080fd5b50612e2385828601612d71565b6000602080838503121561329957600080fd5b82356001600160401b03808211156132b057600080fd5b818501915085601f8301126132c457600080fd5b8135818111156132d6576132d6612d02565b8060051b6132e5858201612d41565b91825283810185019185810190898411156132ff57600080fd5b86860192505b838310156134385782358581111561331c57600080fd5b8601610120818c03601f190181131561333457600080fd5b61333c612d18565b6133478a8401612ce6565b815260408301358a820152606083013560408201526080830135606082015260a08301358881111561337857600080fd5b6133868e8c83870101612d71565b60808301525060c08301358881111561339e57600080fd5b6133ac8e8c83870101612d71565b60a08301525060e0830135888111156133c55760008081fd5b6133d38e8c83870101612d71565b60c08301525061010080840135898111156133ee5760008081fd5b6133fc8f8d83880101612d71565b60e0840152509183013591888311156134155760008081fd5b6134238e8c85870101612d71565b90820152845250509186019190860190613305565b9998505050505050505050565b600080600080600060a0868803121561345d57600080fd5b61346686612ce6565b945060208601356001600160401b038082111561312d57600080fd5b60008060006060848603121561349757600080fd5b6134a084612ce6565b925060208401356001600160401b038111156134bb57600080fd5b6134c786828701612d71565b925050604084013590509250925092565b600181811c908216806134ec57607f821691505b60208210810361350c57634e487b7160e01b600052602260045260246000fd5b50919050565b60008251613524818460208701612e69565b9190910192915050565b634e487b7160e01b600052603260045260246000fd5b634e487b7160e01b600052601160045260246000fd5b60006001820161356c5761356c613544565b5060010190565b600080821280156001600160ff1b038490038513161561359557613595613544565b600160ff1b83900384128116156135ae576135ae613544565b50500190565b60008083546135c2816134d8565b600182811680156135da57600181146135ef5761271b565b60ff198416875282151583028701945061271b565b8760005260208060002060005b858110156136155781548a8201529084019082016135fc565b505050959091019695505050505050565b601f82111561366c57600081815260208120601f850160051c8101602086101561364d5750805b601f850160051c820191505b81811015611da457828155600101613659565b505050565b81516001600160401b0381111561368a5761368a612d02565b61369e8161369884546134d8565b84613626565b602080601f8311600181146136d357600084156136bb5750858301515b600019600386901b1c1916600185901b178555611da4565b600085815260208120601f198616915b82811015613702578886015182559484019460019091019084016136e3565b50858210156137205787850151600019600388901b60f8161c191681555b5050505050600190811b01905550565b60008282101561374257613742613544565b50039056fea26469706673582212209d7c4626b78e2c688088bfd1a01940005528dd63034ee77b54eeddb6fff7519f64736f6c634300080f0033",
  "linkReferences": {},
  "deployedLinkReferences": {}
}