{
  "_format": "hh-sol-artifact-1",
  "contractName": "Sirius",
  "sourceName": "hardhat/contracts/Sirius.sol",
  "abi": [
    {
      "inputs": [
        {
          "internalType": "address",
          "name": "",
          "type": "address"
        },
        {
          "internalType": "uint256",
          "name": "",
          "type": "uint256"
        }
      ],
      "name": "activeKeywords",
      "outputs": [
        {
          "internalType": "string",
          "name": "",
          "type": "string"
        }
      ],
      "stateMutability": "view",
      "type": "function"
    },
    {
      "inputs": [
        {
          "internalType": "address",
          "name": "_admin",
          "type": "address"
        }
      ],
      "name": "addAdmin",
      "outputs": [],
      "stateMutability": "nonpayable",
      "type": "function"
    },
    {
      "inputs": [
        {
          "internalType": "string",
          "name": "_name",
          "type": "string"
        },
        {
          "internalType": "string",
          "name": "_description",
          "type": "string"
        },
        {
          "internalType": "string",
          "name": "_keyword",
          "type": "string"
        },
        {
          "internalType": "string",
          "name": "_url",
          "type": "string"
        },
        {
          "internalType": "string",
          "name": "_image",
          "type": "string"
        }
      ],
      "name": "addCompany",
      "outputs": [],
      "stateMutability": "payable",
      "type": "function"
    },
    {
      "inputs": [
        {
          "internalType": "string",
          "name": "",
          "type": "string"
        }
      ],
      "name": "codeToMessage",
      "outputs": [
        {
          "internalType": "string",
          "name": "name",
          "type": "string"
        },
        {
          "internalType": "string",
          "name": "link",
          "type": "string"
        },
        {
          "internalType": "string",
          "name": "hashedCode",
          "type": "string"
        }
      ],
      "stateMutability": "view",
      "type": "function"
    },
    {
      "inputs": [
        {
          "internalType": "string",
          "name": "",
          "type": "string"
        }
      ],
      "name": "companyRemoved",
      "outputs": [
        {
          "internalType": "bool",
          "name": "",
          "type": "bool"
        }
      ],
      "stateMutability": "view",
      "type": "function"
    },
    {
      "inputs": [
        {
          "internalType": "address",
          "name": "_user",
          "type": "address"
        },
        {
          "internalType": "uint256",
          "name": "_scoreDecrement",
          "type": "uint256"
        }
      ],
      "name": "decreaseUserScore",
      "outputs": [],
      "stateMutability": "nonpayable",
      "type": "function"
    },
    {
      "inputs": [
        {
          "internalType": "address",
          "name": "",
          "type": "address"
        },
        {
          "internalType": "string",
          "name": "",
          "type": "string"
        }
      ],
      "name": "escrow",
      "outputs": [
        {
          "internalType": "uint256",
          "name": "",
          "type": "uint256"
        }
      ],
      "stateMutability": "view",
      "type": "function"
    },
    {
      "inputs": [
        {
          "internalType": "string",
          "name": "_name",
          "type": "string"
        }
      ],
      "name": "getInterestedUsers",
      "outputs": [
        {
          "internalType": "address[]",
          "name": "",
          "type": "address[]"
        }
      ],
      "stateMutability": "view",
      "type": "function"
    },
    {
      "inputs": [
        {
          "internalType": "address",
          "name": "_user",
          "type": "address"
        }
      ],
      "name": "getUserKeywords",
      "outputs": [
        {
          "internalType": "string[]",
          "name": "",
          "type": "string[]"
        }
      ],
      "stateMutability": "view",
      "type": "function"
    },
    {
      "inputs": [
        {
          "internalType": "string",
          "name": "",
          "type": "string"
        },
        {
          "internalType": "uint256",
          "name": "",
          "type": "uint256"
        }
      ],
      "name": "interestedUsers",
      "outputs": [
        {
          "internalType": "address",
          "name": "",
          "type": "address"
        }
      ],
      "stateMutability": "view",
      "type": "function"
    },
    {
      "inputs": [
        {
          "internalType": "string",
          "name": "",
          "type": "string"
        },
        {
          "internalType": "uint256",
          "name": "",
          "type": "uint256"
        }
      ],
      "name": "keywords",
      "outputs": [
        {
          "internalType": "address",
          "name": "companyAdmin",
          "type": "address"
        },
        {
          "internalType": "int256",
          "name": "priceRating",
          "type": "int256"
        },
        {
          "internalType": "int256",
          "name": "accuracyRating",
          "type": "int256"
        },
        {
          "internalType": "int256",
          "name": "serviceRating",
          "type": "int256"
        },
        {
          "internalType": "string",
          "name": "keyword",
          "type": "string"
        },
        {
          "internalType": "string",
          "name": "name",
          "type": "string"
        },
        {
          "internalType": "string",
          "name": "description",
          "type": "string"
        },
        {
          "internalType": "string",
          "name": "url",
          "type": "string"
        },
        {
          "internalType": "string",
          "name": "image",
          "type": "string"
        }
      ],
      "stateMutability": "view",
      "type": "function"
    },
    {
      "inputs": [
        {
          "internalType": "string",
          "name": "",
          "type": "string"
        }
      ],
      "name": "nameToCompany",
      "outputs": [
        {
          "internalType": "address",
          "name": "companyAdmin",
          "type": "address"
        },
        {
          "internalType": "int256",
          "name": "priceRating",
          "type": "int256"
        },
        {
          "internalType": "int256",
          "name": "accuracyRating",
          "type": "int256"
        },
        {
          "internalType": "int256",
          "name": "serviceRating",
          "type": "int256"
        },
        {
          "internalType": "string",
          "name": "keyword",
          "type": "string"
        },
        {
          "internalType": "string",
          "name": "name",
          "type": "string"
        },
        {
          "internalType": "string",
          "name": "description",
          "type": "string"
        },
        {
          "internalType": "string",
          "name": "url",
          "type": "string"
        },
        {
          "internalType": "string",
          "name": "image",
          "type": "string"
        }
      ],
      "stateMutability": "view",
      "type": "function"
    },
    {
      "inputs": [
        {
          "internalType": "string",
          "name": "",
          "type": "string"
        },
        {
          "internalType": "address",
          "name": "",
          "type": "address"
        },
        {
          "internalType": "uint256",
          "name": "",
          "type": "uint256"
        }
      ],
      "name": "pledges",
      "outputs": [
        {
          "internalType": "string",
          "name": "name",
          "type": "string"
        },
        {
          "internalType": "bool",
          "name": "rated",
          "type": "bool"
        },
        {
          "internalType": "bool",
          "name": "codeVerified",
          "type": "bool"
        }
      ],
      "stateMutability": "view",
      "type": "function"
    },
    {
      "inputs": [
        {
          "internalType": "string",
          "name": "_name",
          "type": "string"
        },
        {
          "internalType": "int256",
          "name": "_accuracy",
          "type": "int256"
        },
        {
          "internalType": "int256",
          "name": "_price",
          "type": "int256"
        },
        {
          "internalType": "int256",
          "name": "_service",
          "type": "int256"
        }
      ],
      "name": "rateCompany",
      "outputs": [],
      "stateMutability": "nonpayable",
      "type": "function"
    },
    {
      "inputs": [
        {
          "internalType": "string",
          "name": "_name",
          "type": "string"
        }
      ],
      "name": "removeCompany",
      "outputs": [],
      "stateMutability": "nonpayable",
      "type": "function"
    },
    {
      "inputs": [
        {
          "internalType": "string",
          "name": "_keyword",
          "type": "string"
        }
      ],
      "name": "setKeyword",
      "outputs": [],
      "stateMutability": "payable",
      "type": "function"
    },
    {
      "inputs": [
        {
          "internalType": "address",
          "name": "_client",
          "type": "address"
        },
        {
          "internalType": "string",
          "name": "_link",
          "type": "string"
        },
        {
          "internalType": "string",
          "name": "_hashedCode",
          "type": "string"
        },
        {
          "internalType": "string",
          "name": "_name",
          "type": "string"
        },
        {
          "internalType": "string",
          "name": "_keyword",
          "type": "string"
        }
      ],
      "name": "setMessage",
      "outputs": [],
      "stateMutability": "nonpayable",
      "type": "function"
    },
    {
      "inputs": [
        {
          "components": [
            {
              "internalType": "address",
              "name": "companyAdmin",
              "type": "address"
            },
            {
              "internalType": "int256",
              "name": "priceRating",
              "type": "int256"
            },
            {
              "internalType": "int256",
              "name": "accuracyRating",
              "type": "int256"
            },
            {
              "internalType": "int256",
              "name": "serviceRating",
              "type": "int256"
            },
            {
              "internalType": "string",
              "name": "keyword",
              "type": "string"
            },
            {
              "internalType": "string",
              "name": "name",
              "type": "string"
            },
            {
              "internalType": "string",
              "name": "description",
              "type": "string"
            },
            {
              "internalType": "string",
              "name": "url",
              "type": "string"
            },
            {
              "internalType": "string",
              "name": "image",
              "type": "string"
            }
          ],
          "internalType": "struct Sirius.Company[]",
          "name": "_companies",
          "type": "tuple[]"
        }
      ],
      "name": "setPledges",
      "outputs": [],
      "stateMutability": "nonpayable",
      "type": "function"
    },
    {
      "inputs": [
        {
          "internalType": "address",
          "name": "",
          "type": "address"
        }
      ],
      "name": "userScore",
      "outputs": [
        {
          "internalType": "uint256",
          "name": "",
          "type": "uint256"
        }
      ],
      "stateMutability": "view",
      "type": "function"
    },
    {
      "inputs": [
        {
          "internalType": "address",
          "name": "",
          "type": "address"
        },
        {
          "internalType": "string",
          "name": "",
          "type": "string"
        },
        {
          "internalType": "uint256",
          "name": "",
          "type": "uint256"
        }
      ],
      "name": "userToMessages",
      "outputs": [
        {
          "internalType": "string",
          "name": "name",
          "type": "string"
        },
        {
          "internalType": "string",
          "name": "link",
          "type": "string"
        },
        {
          "internalType": "string",
          "name": "hashedCode",
          "type": "string"
        }
      ],
      "stateMutability": "view",
      "type": "function"
    },
    {
      "inputs": [
        {
          "internalType": "string",
          "name": "_word",
          "type": "string"
        },
        {
          "internalType": "string",
          "name": "_hashedCode",
          "type": "string"
        }
      ],
      "name": "verifyCode",
      "outputs": [],
      "stateMutability": "view",
      "type": "function"
    },
    {
      "inputs": [
        {
          "internalType": "string",
          "name": "_keyword",
          "type": "string"
        }
      ],
      "name": "withdrawFromEscrow",
      "outputs": [],
      "stateMutability": "nonpayable",
      "type": "function"
    }
  ],
  "bytecode": "0x6080604052662386f26fc1000060005534801561001b57600080fd5b506139078061002b6000396000f3fe6080604052600436106101355760003560e01c806370480275116100ab578063ab7fed171161006f578063ab7fed17146103f9578063b52c925714610428578063ba4359e614610448578063c4b7148314610468578063dd833b5b14610488578063ffcee0a1146104a857600080fd5b8063704802751461034c57806371639b6d1461036c578063989a2e4a14610399578063aa798e20146103ac578063ab1e0ef0146103d957600080fd5b806338ee821b116100fd57806338ee821b146102655780634ea71851146102925780635c8e4e5a146102ca578063632a8d64146102f9578063699d6263146103195780636e5892781461033957600080fd5b80630968ce011461013a5780630c5b537a146101965780632378a880146101cb578063240550a6146101f85780632c9f995414610243575b600080fd5b34801561014657600080fd5b50610183610155366004612f08565b6002602090815260009283526040909220815180830184018051928152908401929093019190912091525481565b6040519081526020015b60405180910390f35b3480156101a257600080fd5b506101b66101b1366004612f55565b6104c8565b60405161018d99989796959493929190612fe9565b3480156101d757600080fd5b506101eb6101e6366004612f55565b6107d3565b60405161018d919061307e565b34801561020457600080fd5b50610233610213366004612f55565b805160208183018101805160078252928201919093012091525460ff1681565b604051901515815260200161018d565b34801561024f57600080fd5b5061026361025e366004612f55565b610850565b005b34801561027157600080fd5b506101836102803660046130cb565b60056020526000908152604090205481565b34801561029e57600080fd5b506102b26102ad3660046130ed565b610ca6565b6040516001600160a01b03909116815260200161018d565b3480156102d657600080fd5b506102ea6102e5366004613131565b610ced565b60405161018d93929190613187565b34801561030557600080fd5b506102636103143660046131b1565b610dd9565b34801561032557600080fd5b506101b66103343660046130ed565b610f8c565b610263610347366004612f55565b610ffe565b34801561035857600080fd5b506102636103673660046130cb565b61109b565b34801561037857600080fd5b5061038c6103873660046130cb565b61110d565b60405161018d9190613204565b6102636103a7366004613266565b6111fc565b3480156103b857600080fd5b506103cc6103c7366004613337565b61142d565b60405161018d9190613361565b3480156103e557600080fd5b506102636103f4366004613337565b6114e6565b34801561040557600080fd5b50610419610414366004612f55565b611562565b60405161018d93929190613374565b34801561043457600080fd5b506102636104433660046133b7565b611727565b34801561045457600080fd5b50610263610463366004613410565b611ed3565b34801561047457600080fd5b506102636104833660046135cf565b612028565b34801561049457600080fd5b506104196104a336600461360c565b612131565b3480156104b457600080fd5b506102636104c3366004612f55565b61218d565b805160208183018101805160048083529383019290940191909120929052815460018301546002840154600385015493850180546001600160a01b03909416959294919391929161051890613662565b80601f016020809104026020016040519081016040528092919081815260200182805461054490613662565b80156105915780601f1061056657610100808354040283529160200191610591565b820191906000526020600020905b81548152906001019060200180831161057457829003601f168201915b5050505050908060050180546105a690613662565b80601f01602080910402602001604051908101604052809291908181526020018280546105d290613662565b801561061f5780601f106105f45761010080835404028352916020019161061f565b820191906000526020600020905b81548152906001019060200180831161060257829003601f168201915b50505050509080600601805461063490613662565b80601f016020809104026020016040519081016040528092919081815260200182805461066090613662565b80156106ad5780601f10610682576101008083540402835291602001916106ad565b820191906000526020600020905b81548152906001019060200180831161069057829003601f168201915b5050505050908060070180546106c290613662565b80601f01602080910402602001604051908101604052809291908181526020018280546106ee90613662565b801561073b5780601f106107105761010080835404028352916020019161073b565b820191906000526020600020905b81548152906001019060200180831161071e57829003601f168201915b50505050509080600801805461075090613662565b80601f016020809104026020016040519081016040528092919081815260200182805461077c90613662565b80156107c95780601f1061079e576101008083540402835291602001916107c9565b820191906000526020600020905b8154815290600101906020018083116107ac57829003601f168201915b5050505050905089565b606060006009836040516107e7919061369c565b908152604080519182900360209081018320805480830285018301909352828452919083018282801561084357602002820191906000526020600020905b81546001600160a01b03168152600190910190602001808311610825575b5093979650505050505050565b600061085b82612713565b905080516000036108a05760405162461bcd60e51b815260206004820152600a6024820152696e6f20706c656467657360b01b60448201526064015b60405180910390fd5b6108a98261284f565b6108e45760405162461bcd60e51b815260206004820152600c60248201526b6e6f7420636f6d706c65746560a01b6044820152606401610897565b33600090815260026020526040808220905161090190859061369c565b9081526040805191829003602090810183205433600090815260029092529190209092509061093190859061369c565b908152604051908190036020018120600090819055339183156108fc0291849190818181858888f1935050505015801561096f573d6000803e3d6000fd5b50336000908152600a6020526040808220905161098d90869061369c565b9081526020016040518091039020805480602002602001604051908101604052809291908181526020016000905b82821015610ba357838290600052602060002090600302016040518060600160405290816000820180546109ee90613662565b80601f0160208091040260200160405190810160405280929190818152602001828054610a1a90613662565b8015610a675780601f10610a3c57610100808354040283529160200191610a67565b820191906000526020600020905b815481529060010190602001808311610a4a57829003601f168201915b50505050508152602001600182018054610a8090613662565b80601f0160208091040260200160405190810160405280929190818152602001828054610aac90613662565b8015610af95780601f10610ace57610100808354040283529160200191610af9565b820191906000526020600020905b815481529060010190602001808311610adc57829003601f168201915b50505050508152602001600282018054610b1290613662565b80601f0160208091040260200160405190810160405280929190818152602001828054610b3e90613662565b8015610b8b5780601f10610b6057610100808354040283529160200191610b8b565b820191906000526020600020905b815481529060010190602001808311610b6e57829003601f168201915b505050505081525050815260200190600101906109bb565b50505050905060005b81518111610c33576000828281518110610bc857610bc86136b8565b6020026020010151905060068160400151604051610be6919061369c565b9081526040519081900360200190206000610c018282612c77565b610c0f600183016000612c77565b610c1d600283016000612c77565b5050508080610c2b906136e4565b915050610bac565b50336000908152600a6020526040908190209051610c5290869061369c565b90815260200160405180910390206000610c6c9190612cb4565b600b84604051610c7c919061369c565b908152604080516020928190038301902033600090815292528120610ca091612cd5565b50505050565b81516020818401810180516009825292820191850191909120919052805482908110610cd157600080fd5b6000918252602090912001546001600160a01b03169150829050565b8251602081850181018051600b82529282018287012092905252600082815260409020805482908110610d1f57600080fd5b90600052602060002090600202016000925092505050806000018054610d4490613662565b80601f0160208091040260200160405190810160405280929190818152602001828054610d7090613662565b8015610dbd5780601f10610d9257610100808354040283529160200191610dbd565b820191906000526020600020905b815481529060010190602001808311610da057829003601f168201915b5050506001909301549192505060ff8082169161010090041683565b6000610de4856128dd565b905060008482604001818151610dfa91906136fd565b91508181525012610e1b578381604001818151610e1791906136fd565b9052505b60008382602001818151610e2f91906136fd565b91508181525012610e50578281602001818151610e4c91906136fd565b9052505b60008282606001818151610e6491906136fd565b91508181525012610e85578181606001818151610e8191906136fd565b9052505b6000600b8260800151604051610e9b919061369c565b90815260408051602092819003830190203360009081529252812091505b81548111610f835786604051602001610ed2919061369c565b60405160208183030381529060405280519060200120828281548110610efa57610efa6136b8565b9060005260206000209060020201600001604051602001610f1b919061373e565b6040516020818303038152906040528051906020012003610f71576001828281548110610f4a57610f4a6136b8565b60009182526020909120600290910201600101805460ff1916911515919091179055610f83565b80610f7b816136e4565b915050610eb9565b50505050505050565b81516020818401810180516003825292820191850191909120919052805482908110610fb757600080fd5b6000918252602090912060099091020180546001820154600283015460038401546004850180546001600160a01b0390951697509295509093909290919061051890613662565b600054341461103d5760405162461bcd60e51b815260206004820152600b60248201526a496e76616c69642066656560a81b6044820152606401610897565b3360009081526008602090815260408220805460018101825590835291200161106682826137fb565b503360009081526002602052604090819020905134919061108890849061369c565b9081526040519081900360200190205550565b3360009081526001602052604090205460ff166110e65760405162461bcd60e51b81526020600482015260096024820152682737ba1030b236b4b760b91b6044820152606401610897565b6001600160a01b03166000908152600160208190526040909120805460ff19169091179055565b6001600160a01b0381166000908152600860209081526040808320805482518185028101850190935280835260609492939192909184015b828210156111f157838290600052602060002001805461116490613662565b80601f016020809104026020016040519081016040528092919081815260200182805461119090613662565b80156111dd5780601f106111b2576101008083540402835291602001916111dd565b820191906000526020600020905b8154815290600101906020018083116111c057829003601f168201915b505050505081526020019060010190611145565b505050509050919050565b6000604051806101200160405280336001600160a01b031681526020016000815260200160008152602001600081526020018581526020018781526020018681526020018481526020018381525090508060048760405161125d919061369c565b9081526040805160209281900383019020835181546001600160a01b0319166001600160a01b03909116178155918301516001830155820151600282015560608201516003820155608082015160048201906112b990826137fb565b5060a082015160058201906112ce90826137fb565b5060c082015160068201906112e390826137fb565b5060e082015160078201906112f890826137fb565b50610100820151600882019061130e90826137fb565b50905050600384604051611322919061369c565b9081526040805160209281900383019020805460018082018355600092835291849020855160099092020180546001600160a01b0319166001600160a01b0390921691909117815592840151908301558201516002820155606082015160038201556080820151829190600482019061139b90826137fb565b5060a082015160058201906113b090826137fb565b5060c082015160068201906113c590826137fb565b5060e082015160078201906113da90826137fb565b5061010082015160088201906113f090826137fb565b5050506000600787604051611405919061369c565b908152604051908190036020019020805491151560ff19909216919091179055505050505050565b6008602052816000526040600020818154811061144957600080fd5b9060005260206000200160009150915050805461146590613662565b80601f016020809104026020016040519081016040528092919081815260200182805461149190613662565b80156114de5780601f106114b3576101008083540402835291602001916114de565b820191906000526020600020905b8154815290600101906020018083116114c157829003601f168201915b505050505081565b3360009081526001602052604090205460ff166115315760405162461bcd60e51b81526020600482015260096024820152682737ba1030b236b4b760b91b6044820152606401610897565b6001600160a01b038216600090815260056020526040812080548392906115599084906138ba565b90915550505050565b805160208183018101805160068252928201919093012091528054819061158890613662565b80601f01602080910402602001604051908101604052809291908181526020018280546115b490613662565b80156116015780601f106115d657610100808354040283529160200191611601565b820191906000526020600020905b8154815290600101906020018083116115e457829003601f168201915b50505050509080600101805461161690613662565b80601f016020809104026020016040519081016040528092919081815260200182805461164290613662565b801561168f5780601f106116645761010080835404028352916020019161168f565b820191906000526020600020905b81548152906001019060200180831161167257829003601f168201915b5050505050908060020180546116a490613662565b80601f01602080910402602001604051908101604052809291908181526020018280546116d090613662565b801561171d5780601f106116f25761010080835404028352916020019161171d565b820191906000526020600020905b81548152906001019060200180831161170057829003601f168201915b5050505050905083565b6000600682604051611739919061369c565b908152602001604051809103902060405180606001604052908160008201805461176290613662565b80601f016020809104026020016040519081016040528092919081815260200182805461178e90613662565b80156117db5780601f106117b0576101008083540402835291602001916117db565b820191906000526020600020905b8154815290600101906020018083116117be57829003601f168201915b505050505081526020016001820180546117f490613662565b80601f016020809104026020016040519081016040528092919081815260200182805461182090613662565b801561186d5780601f106118425761010080835404028352916020019161186d565b820191906000526020600020905b81548152906001019060200180831161185057829003601f168201915b5050505050815260200160028201805461188690613662565b80601f01602080910402602001604051908101604052809291908181526020018280546118b290613662565b80156118ff5780601f106118d4576101008083540402835291602001916118ff565b820191906000526020600020905b8154815290600101906020018083116118e257829003601f168201915b5050505050815250509050806040015160405160200161191f919061369c565b6040516020818303038152906040528051906020012083604051602001611946919061369c565b60405160208183030381529060405280519060200120146119965760405162461bcd60e51b815260206004820152600a60248201526977726f6e6720636f646560b01b6044820152606401610897565b6000600482600001516040516119ac919061369c565b9081526040805191829003602090810183206101208401835280546001600160a01b0316845260018101549184019190915260028101549183019190915260038101546060830152600481018054608084019190611a0990613662565b80601f0160208091040260200160405190810160405280929190818152602001828054611a3590613662565b8015611a825780601f10611a5757610100808354040283529160200191611a82565b820191906000526020600020905b815481529060010190602001808311611a6557829003601f168201915b50505050508152602001600582018054611a9b90613662565b80601f0160208091040260200160405190810160405280929190818152602001828054611ac790613662565b8015611b145780601f10611ae957610100808354040283529160200191611b14565b820191906000526020600020905b815481529060010190602001808311611af757829003601f168201915b50505050508152602001600682018054611b2d90613662565b80601f0160208091040260200160405190810160405280929190818152602001828054611b5990613662565b8015611ba65780601f10611b7b57610100808354040283529160200191611ba6565b820191906000526020600020905b815481529060010190602001808311611b8957829003601f168201915b50505050508152602001600782018054611bbf90613662565b80601f0160208091040260200160405190810160405280929190818152602001828054611beb90613662565b8015611c385780601f10611c0d57610100808354040283529160200191611c38565b820191906000526020600020905b815481529060010190602001808311611c1b57829003601f168201915b50505050508152602001600882018054611c5190613662565b80601f0160208091040260200160405190810160405280929190818152602001828054611c7d90613662565b8015611cca5780601f10611c9f57610100808354040283529160200191611cca565b820191906000526020600020905b815481529060010190602001808311611cad57829003601f168201915b50505050508152505090506000600b8260800151604051611ceb919061369c565b908152604080519182900360209081018320336000908152908252828120805480840286018401909452838552929184015b82821015611e075783829060005260206000209060020201604051806060016040529081600082018054611d5090613662565b80601f0160208091040260200160405190810160405280929190818152602001828054611d7c90613662565b8015611dc95780601f10611d9e57610100808354040283529160200191611dc9565b820191906000526020600020905b815481529060010190602001808311611dac57829003601f168201915b505050918352505060019182015460ff8082161515602080850191909152610100909204161515604090920191909152918352929092019101611d1d565b50505050905060005b81518111611ecb578351604051611e2a919060200161369c565b60405160208183030381529060405280519060200120828281518110611e5257611e526136b8565b602002602001015160000151604051602001611e6e919061369c565b6040516020818303038152906040528051906020012003611eb9576001828281518110611e9d57611e9d6136b8565b6020908102919091010151901515604090910152505050505050565b80611ec3816136e4565b915050611e10565b505050505050565b336000908152600860205260408120825190918391611ef457611ef46136b8565b6020908102919091018101516080015182546001810184556000938452919092200190611f2190826137fb565b5060005b81518110156120245760006040518060600160405280848481518110611f4d57611f4d6136b8565b602002602001015160a001518152602001600015158152602001600015158152509050600b838381518110611f8457611f846136b8565b602002602001015160800151604051611f9d919061369c565b9081526040805160209281900383019020336000908152908352908120805460018101825590825291902082518392600202909101908190611fdf90826137fb565b5060208201516001909101805460409093015115156101000261ff00199215159290921661ffff1990931692909217179055508061201c816136e4565b915050611f25565b5050565b6040805160608101825283815260208082018790528183018690526001600160a01b0388166000908152600a909152829020915190919061206a90849061369c565b9081526040516020918190038201902080546001810182556000918252919020825183926003029091019081906120a190826137fb565b50602082015160018201906120b690826137fb565b50604082015160028201906120cb90826137fb565b505050806006856040516120df919061369c565b908152604051908190036020019020815181906120fc90826137fb565b506020820151600182019061211190826137fb565b506040820151600282019061212690826137fb565b505050505050505050565b600a602090815260008481526040902083518085018301805192815290830192850192909220915280548290811061216857600080fd5b9060005260206000209060030201600092509250505080600001805461158890613662565b6000612198826128dd565b80519091506001600160a01b03163314806121c257503360009081526001602052604090205460ff165b6121fc5760405162461bcd60e51b815260206004820152600b60248201526a61646d696e73206f6e6c7960a81b6044820152606401610897565b60048160a00151604051612210919061369c565b90815260405190819003602001902080546001600160a01b031916815560006001820181905560028201819055600382018190556122516004830182612c77565b61225f600583016000612c77565b61226d600683016000612c77565b61227b600783016000612c77565b612289600883016000612c77565b50506000600382608001516040516122a1919061369c565b9081526020016040518091039020805480602002602001604051908101604052809291908181526020016000905b8282101561261157600084815260209081902060408051610120810182526009860290920180546001600160a01b031683526001810154938301939093526002830154908201526003820154606082015260048201805491929160808401919061233890613662565b80601f016020809104026020016040519081016040528092919081815260200182805461236490613662565b80156123b15780601f10612386576101008083540402835291602001916123b1565b820191906000526020600020905b81548152906001019060200180831161239457829003601f168201915b505050505081526020016005820180546123ca90613662565b80601f01602080910402602001604051908101604052809291908181526020018280546123f690613662565b80156124435780601f1061241857610100808354040283529160200191612443565b820191906000526020600020905b81548152906001019060200180831161242657829003601f168201915b5050505050815260200160068201805461245c90613662565b80601f016020809104026020016040519081016040528092919081815260200182805461248890613662565b80156124d55780601f106124aa576101008083540402835291602001916124d5565b820191906000526020600020905b8154815290600101906020018083116124b857829003601f168201915b505050505081526020016007820180546124ee90613662565b80601f016020809104026020016040519081016040528092919081815260200182805461251a90613662565b80156125675780601f1061253c57610100808354040283529160200191612567565b820191906000526020600020905b81548152906001019060200180831161254a57829003601f168201915b5050505050815260200160088201805461258090613662565b80601f01602080910402602001604051908101604052809291908181526020018280546125ac90613662565b80156125f95780601f106125ce576101008083540402835291602001916125f9565b820191906000526020600020905b8154815290600101906020018083116125dc57829003601f168201915b505050505081525050815260200190600101906122cf565b50505050905060005b815181116126db578260a00151604051602001612637919061369c565b6040516020818303038152906040528051906020012082828151811061265f5761265f6136b8565b602002602001015160a0015160405160200161267b919061369c565b60405160208183030381529060405280519060200120036126c957600383608001516040516126aa919061369c565b908152602001604051809103902060006126c49190612cf6565b6126db565b806126d3816136e4565b91505061261a565b5060016007846040516126ee919061369c565b908152604051908190036020019020805491151560ff19909216919091179055505050565b60606000600b83604051612727919061369c565b908152604080519182900360209081018320336000908152908252828120805480840286018401909452838552929184015b82821015612843578382906000526020600020906002020160405180606001604052908160008201805461278c90613662565b80601f01602080910402602001604051908101604052809291908181526020018280546127b890613662565b80156128055780601f106127da57610100808354040283529160200191612805565b820191906000526020600020905b8154815290600101906020018083116127e857829003601f168201915b505050918352505060019182015460ff8082161515602080850191909152610100909204161515604090920191909152918352929092019101612759565b50929695505050505050565b60008061285b83612713565b905060005b815181116128d35781818151811061287a5761287a6136b8565b602090810291909101810151015115806128b257508181815181106128a1576128a16136b8565b602090810291909101015160400151155b156128c1575060009392505050565b806128cb816136e4565b915050612860565b5060019392505050565b61293560405180610120016040528060006001600160a01b0316815260200160008152602001600081526020016000815260200160608152602001606081526020016060815260200160608152602001606081525090565b6000600483604051612947919061369c565b9081526040805191829003602090810183206101208401835280546001600160a01b03168452600181015491840191909152600281015491830191909152600381015460608301526004810180546080840191906129a490613662565b80601f01602080910402602001604051908101604052809291908181526020018280546129d090613662565b8015612a1d5780601f106129f257610100808354040283529160200191612a1d565b820191906000526020600020905b815481529060010190602001808311612a0057829003601f168201915b50505050508152602001600582018054612a3690613662565b80601f0160208091040260200160405190810160405280929190818152602001828054612a6290613662565b8015612aaf5780601f10612a8457610100808354040283529160200191612aaf565b820191906000526020600020905b815481529060010190602001808311612a9257829003601f168201915b50505050508152602001600682018054612ac890613662565b80601f0160208091040260200160405190810160405280929190818152602001828054612af490613662565b8015612b415780601f10612b1657610100808354040283529160200191612b41565b820191906000526020600020905b815481529060010190602001808311612b2457829003601f168201915b50505050508152602001600782018054612b5a90613662565b80601f0160208091040260200160405190810160405280929190818152602001828054612b8690613662565b8015612bd35780601f10612ba857610100808354040283529160200191612bd3565b820191906000526020600020905b815481529060010190602001808311612bb657829003601f168201915b50505050508152602001600882018054612bec90613662565b80601f0160208091040260200160405190810160405280929190818152602001828054612c1890613662565b8015612c655780601f10612c3a57610100808354040283529160200191612c65565b820191906000526020600020905b815481529060010190602001808311612c4857829003601f168201915b50505091909252509195945050505050565b508054612c8390613662565b6000825580601f10612c93575050565b601f016020900490600052602060002090810190612cb19190612d17565b50565b5080546000825560030290600052602060002090810190612cb19190612d30565b5080546000825560020290600052602060002090810190612cb19190612d69565b5080546000825560090290600052602060002090810190612cb19190612d93565b5b80821115612d2c5760008155600101612d18565b5090565b80821115612d2c576000612d448282612c77565b612d52600183016000612c77565b612d60600283016000612c77565b50600301612d30565b80821115612d2c576000612d7d8282612c77565b5060018101805461ffff19169055600201612d69565b80821115612d2c5780546001600160a01b03191681556000600182018190556002820181905560038201819055612dcd6004830182612c77565b612ddb600583016000612c77565b612de9600683016000612c77565b612df7600783016000612c77565b612e05600883016000612c77565b50600901612d93565b80356001600160a01b0381168114612e2557600080fd5b919050565b634e487b7160e01b600052604160045260246000fd5b60405161012081016001600160401b0381118282101715612e6357612e63612e2a565b60405290565b604051601f8201601f191681016001600160401b0381118282101715612e9157612e91612e2a565b604052919050565b600082601f830112612eaa57600080fd5b81356001600160401b03811115612ec357612ec3612e2a565b612ed6601f8201601f1916602001612e69565b818152846020838601011115612eeb57600080fd5b816020850160208301376000918101602001919091529392505050565b60008060408385031215612f1b57600080fd5b612f2483612e0e565b915060208301356001600160401b03811115612f3f57600080fd5b612f4b85828601612e99565b9150509250929050565b600060208284031215612f6757600080fd5b81356001600160401b03811115612f7d57600080fd5b612f8984828501612e99565b949350505050565b60005b83811015612fac578181015183820152602001612f94565b83811115610ca05750506000910152565b60008151808452612fd5816020860160208601612f91565b601f01601f19169290920160200192915050565b600061012060018060a01b038c1683528a602084015289604084015288606084015280608084015261301d81840189612fbd565b905082810360a08401526130318188612fbd565b905082810360c08401526130458187612fbd565b905082810360e08401526130598186612fbd565b905082810361010084015261306e8185612fbd565b9c9b505050505050505050505050565b6020808252825182820181905260009190848201906040850190845b818110156130bf5783516001600160a01b03168352928401929184019160010161309a565b50909695505050505050565b6000602082840312156130dd57600080fd5b6130e682612e0e565b9392505050565b6000806040838503121561310057600080fd5b82356001600160401b0381111561311657600080fd5b61312285828601612e99565b95602094909401359450505050565b60008060006060848603121561314657600080fd5b83356001600160401b0381111561315c57600080fd5b61316886828701612e99565b93505061317760208501612e0e565b9150604084013590509250925092565b60608152600061319a6060830186612fbd565b931515602083015250901515604090910152919050565b600080600080608085870312156131c757600080fd5b84356001600160401b038111156131dd57600080fd5b6131e987828801612e99565b97602087013597506040870135966060013595509350505050565b6000602080830181845280855180835260408601915060408160051b870101925083870160005b8281101561325957603f19888603018452613247858351612fbd565b9450928501929085019060010161322b565b5092979650505050505050565b600080600080600060a0868803121561327e57600080fd5b85356001600160401b038082111561329557600080fd5b6132a189838a01612e99565b965060208801359150808211156132b757600080fd5b6132c389838a01612e99565b955060408801359150808211156132d957600080fd5b6132e589838a01612e99565b945060608801359150808211156132fb57600080fd5b61330789838a01612e99565b9350608088013591508082111561331d57600080fd5b5061332a88828901612e99565b9150509295509295909350565b6000806040838503121561334a57600080fd5b61335383612e0e565b946020939093013593505050565b6020815260006130e66020830184612fbd565b6060815260006133876060830186612fbd565b82810360208401526133998186612fbd565b905082810360408401526133ad8185612fbd565b9695505050505050565b600080604083850312156133ca57600080fd5b82356001600160401b03808211156133e157600080fd5b6133ed86838701612e99565b9350602085013591508082111561340357600080fd5b50612f4b85828601612e99565b6000602080838503121561342357600080fd5b82356001600160401b038082111561343a57600080fd5b818501915085601f83011261344e57600080fd5b81358181111561346057613460612e2a565b8060051b61346f858201612e69565b918252838101850191858101908984111561348957600080fd5b86860192505b838310156135c2578235858111156134a657600080fd5b8601610120818c03601f19018113156134be57600080fd5b6134c6612e40565b6134d18a8401612e0e565b815260408301358a820152606083013560408201526080830135606082015260a08301358881111561350257600080fd5b6135108e8c83870101612e99565b60808301525060c08301358881111561352857600080fd5b6135368e8c83870101612e99565b60a08301525060e08301358881111561354f5760008081fd5b61355d8e8c83870101612e99565b60c08301525061010080840135898111156135785760008081fd5b6135868f8d83880101612e99565b60e08401525091830135918883111561359f5760008081fd5b6135ad8e8c85870101612e99565b9082015284525050918601919086019061348f565b9998505050505050505050565b600080600080600060a086880312156135e757600080fd5b6135f086612e0e565b945060208601356001600160401b03808211156132b757600080fd5b60008060006060848603121561362157600080fd5b61362a84612e0e565b925060208401356001600160401b0381111561364557600080fd5b61365186828701612e99565b925050604084013590509250925092565b600181811c9082168061367657607f821691505b60208210810361369657634e487b7160e01b600052602260045260246000fd5b50919050565b600082516136ae818460208701612f91565b9190910192915050565b634e487b7160e01b600052603260045260246000fd5b634e487b7160e01b600052601160045260246000fd5b6000600182016136f6576136f66136ce565b5060010190565b600080821280156001600160ff1b038490038513161561371f5761371f6136ce565b600160ff1b8390038412811615613738576137386136ce565b50500190565b600080835461374c81613662565b60018281168015613764576001811461377957612843565b60ff1984168752821515830287019450612843565b8760005260208060002060005b8581101561379f5781548a820152908401908201613786565b505050959091019695505050505050565b601f8211156137f657600081815260208120601f850160051c810160208610156137d75750805b601f850160051c820191505b81811015611ecb578281556001016137e3565b505050565b81516001600160401b0381111561381457613814612e2a565b613828816138228454613662565b846137b0565b602080601f83116001811461385d57600084156138455750858301515b600019600386901b1c1916600185901b178555611ecb565b600085815260208120601f198616915b8281101561388c5788860151825594840194600190910190840161386d565b50858210156138aa5787850151600019600388901b60f8161c191681555b5050505050600190811b01905550565b6000828210156138cc576138cc6136ce565b50039056fea2646970667358221220ce3d7560bf11649b60ae260e30055869498c3668c6b7abbd9ca27a5e5e6396ca64736f6c634300080f0033",
  "linkReferences": {},
  "deployedLinkReferences": {}
}