{
  "_format": "hh-sol-artifact-1",
  "contractName": "Sirious",
  "sourceName": "hardhat/contracts/Sirius.sol",
  "abi": [
    {
      "inputs": [
        {
          "internalType": "address",
          "name": "_admin",
          "type": "address"
        }
      ],
      "name": "addAdmin",
      "outputs": [],
      "stateMutability": "nonpayable",
      "type": "function"
    },
    {
      "inputs": [
        {
          "internalType": "address",
          "name": "_companyAdmin",
          "type": "address"
        },
        {
          "internalType": "string",
          "name": "_name",
          "type": "string"
        },
        {
          "internalType": "string",
          "name": "_description",
          "type": "string"
        },
        {
          "internalType": "string",
          "name": "_keyword",
          "type": "string"
        },
        {
          "internalType": "string",
          "name": "_url",
          "type": "string"
        },
        {
          "internalType": "string",
          "name": "_image",
          "type": "string"
        }
      ],
      "name": "addCompany",
      "outputs": [],
      "stateMutability": "payable",
      "type": "function"
    },
    {
      "inputs": [
        {
          "internalType": "address",
          "name": "_user",
          "type": "address"
        },
        {
          "internalType": "uint256",
          "name": "_scoreDecrement",
          "type": "uint256"
        }
      ],
      "name": "decreaseUserScore",
      "outputs": [],
      "stateMutability": "nonpayable",
      "type": "function"
    },
    {
      "inputs": [
        {
          "internalType": "string",
          "name": "_name",
          "type": "string"
        },
        {
          "internalType": "int256",
          "name": "_accuracy",
          "type": "int256"
        },
        {
          "internalType": "int256",
          "name": "_price",
          "type": "int256"
        },
        {
          "internalType": "int256",
          "name": "_service",
          "type": "int256"
        }
      ],
      "name": "rateCompany",
      "outputs": [],
      "stateMutability": "nonpayable",
      "type": "function"
    },
    {
      "inputs": [
        {
          "internalType": "string",
          "name": "_name",
          "type": "string"
        }
      ],
      "name": "removeCompany",
      "outputs": [],
      "stateMutability": "nonpayable",
      "type": "function"
    },
    {
      "inputs": [
        {
          "internalType": "address",
          "name": "_client",
          "type": "address"
        },
        {
          "internalType": "string",
          "name": "_link",
          "type": "string"
        },
        {
          "internalType": "string",
          "name": "_hashedCode",
          "type": "string"
        },
        {
          "internalType": "string",
          "name": "_name",
          "type": "string"
        },
        {
          "internalType": "string",
          "name": "_keyword",
          "type": "string"
        }
      ],
      "name": "setMessage",
      "outputs": [],
      "stateMutability": "nonpayable",
      "type": "function"
    },
    {
      "inputs": [
        {
          "components": [
            {
              "internalType": "address",
              "name": "companyAdmin",
              "type": "address"
            },
            {
              "internalType": "int256",
              "name": "priceRating",
              "type": "int256"
            },
            {
              "internalType": "int256",
              "name": "accuracyRating",
              "type": "int256"
            },
            {
              "internalType": "int256",
              "name": "serviceRating",
              "type": "int256"
            },
            {
              "internalType": "string",
              "name": "keyword",
              "type": "string"
            },
            {
              "internalType": "string",
              "name": "name",
              "type": "string"
            },
            {
              "internalType": "string",
              "name": "description",
              "type": "string"
            },
            {
              "internalType": "string",
              "name": "url",
              "type": "string"
            },
            {
              "internalType": "string",
              "name": "image",
              "type": "string"
            }
          ],
          "internalType": "struct Sirious.Company[]",
          "name": "_companies",
          "type": "tuple[]"
        }
      ],
      "name": "setPledges",
      "outputs": [],
      "stateMutability": "nonpayable",
      "type": "function"
    },
    {
      "inputs": [
        {
          "internalType": "string",
          "name": "_word",
          "type": "string"
        },
        {
          "internalType": "string",
          "name": "_link",
          "type": "string"
        }
      ],
      "name": "verifyCode",
      "outputs": [],
      "stateMutability": "view",
      "type": "function"
    },
    {
      "inputs": [
        {
          "internalType": "string",
          "name": "_keyword",
          "type": "string"
        }
      ],
      "name": "withdrawFromEscrow",
      "outputs": [],
      "stateMutability": "nonpayable",
      "type": "function"
    }
  ],
  "bytecode": "0x608060405234801561001057600080fd5b5061242e806100206000396000f3fe6080604052600436106100865760003560e01c8063ab1e0ef011610059578063ab1e0ef014610100578063b52c925714610120578063ba4359e614610140578063c4b7148314610160578063ffcee0a11461018057600080fd5b80632c9f99541461008b578063632a8d64146100ad57806370480275146100cd578063806c2406146100ed575b600080fd5b34801561009757600080fd5b506100ab6100a6366004611caa565b6101a0565b005b3480156100b957600080fd5b506100ab6100c8366004611ce7565b6105f6565b3480156100d957600080fd5b506100ab6100e8366004611d57565b6107a9565b6100ab6100fb366004611d79565b610818565b34801561010c57600080fd5b506100ab61011b366004611e5a565b610a4a565b34801561012c57600080fd5b506100ab61013b366004611e84565b610ac6565b34801561014c57600080fd5b506100ab61015b366004611ee8565b610d3a565b34801561016c57600080fd5b506100ab61017b3660046120a8565b610e3f565b34801561018c57600080fd5b506100ab61019b366004611caa565b610f48565b60006101ab826114ce565b905080516000036101f05760405162461bcd60e51b815260206004820152600a6024820152696e6f20706c656467657360b01b60448201526064015b60405180910390fd5b6101f98261160a565b6102345760405162461bcd60e51b815260206004820152600c60248201526b6e6f7420636f6d706c65746560a01b60448201526064016101e7565b336000908152600160205260408082209051610251908590612166565b90815260408051918290036020908101832054336000908152600190925291902090925090610281908590612166565b908152604051908190036020018120600090819055339183156108fc0291849190818181858888f193505050501580156102bf573d6000803e3d6000fd5b503360009081526007602052604080822090516102dd908690612166565b9081526020016040518091039020805480602002602001604051908101604052809291908181526020016000905b828210156104f3578382906000526020600020906003020160405180606001604052908160008201805461033e906121a1565b80601f016020809104026020016040519081016040528092919081815260200182805461036a906121a1565b80156103b75780601f1061038c576101008083540402835291602001916103b7565b820191906000526020600020905b81548152906001019060200180831161039a57829003601f168201915b505050505081526020016001820180546103d0906121a1565b80601f01602080910402602001604051908101604052809291908181526020018280546103fc906121a1565b80156104495780601f1061041e57610100808354040283529160200191610449565b820191906000526020600020905b81548152906001019060200180831161042c57829003601f168201915b50505050508152602001600282018054610462906121a1565b80601f016020809104026020016040519081016040528092919081815260200182805461048e906121a1565b80156104db5780601f106104b0576101008083540402835291602001916104db565b820191906000526020600020905b8154815290600101906020018083116104be57829003601f168201915b5050505050815250508152602001906001019061030b565b50505050905060005b81518111610583576000828281518110610518576105186121db565b60200260200101519050600581602001516040516105369190612166565b90815260405190819003602001902060006105518282611a32565b61055f600183016000611a32565b61056d600283016000611a32565b505050808061057b90612207565b9150506104fc565b50336000908152600760205260409081902090516105a2908690612166565b908152602001604051809103902060006105bc9190611a6f565b6008846040516105cc9190612166565b9081526040805160209281900383019020336000908152925281206105f091611a90565b50505050565b600061060185611698565b9050600084826040018181516106179190612220565b915081815250126106385783816040018181516106349190612220565b9052505b6000838260200181815161064c9190612220565b9150818152501261066d5782816020018181516106699190612220565b9052505b600082826060018181516106819190612220565b915081815250126106a257818160600181815161069e9190612220565b9052505b6000600882608001516040516106b89190612166565b90815260408051602092819003830190203360009081529252812091505b815481116107a057866040516020016106ef9190612166565b60405160208183030381529060405280519060200120828281548110610717576107176121db565b90600052602060002090600202016000016040516020016107389190612261565b604051602081830303815290604052805190602001200361078e576001828281548110610767576107676121db565b60009182526020909120600290910201600101805460ff19169115159190911790556107a0565b8061079881612207565b9150506106d6565b50505050505050565b3360009081526020819052604090205460ff166107f45760405162461bcd60e51b81526020600482015260096024820152682737ba1030b236b4b760b91b60448201526064016101e7565b6001600160a01b03166000908152602081905260409020805460ff19166001179055565b6000604051806101200160405280886001600160a01b03168152602001600081526020016000815260200160008152602001858152602001878152602001868152602001848152602001838152509050806003876040516108799190612166565b9081526040805160209281900383019020835181546001600160a01b0319166001600160a01b03909116178155918301516001830155820151600282015560608201516003820155608082015160048201906108d59082612321565b5060a082015160058201906108ea9082612321565b5060c082015160068201906108ff9082612321565b5060e082015160078201906109149082612321565b50610100820151600882019061092a9082612321565b5090505060028460405161093e9190612166565b9081526040805160209281900383019020805460018082018355600092835291849020855160099092020180546001600160a01b0319166001600160a01b039092169190911781559284015190830155820151600282015560608201516003820155608082015182919060048201906109b79082612321565b5060a082015160058201906109cc9082612321565b5060c082015160068201906109e19082612321565b5060e082015160078201906109f69082612321565b506101008201516008820190610a0c9082612321565b5050506000600687604051610a219190612166565b908152604051908190036020019020805491151560ff1990921691909117905550505050505050565b3360009081526020819052604090205460ff16610a955760405162461bcd60e51b81526020600482015260096024820152682737ba1030b236b4b760b91b60448201526064016101e7565b6001600160a01b03821660009081526004602052604081208054839290610abd9084906123e1565b90915550505050565b6000600582604051610ad89190612166565b9081526020016040518091039020604051806060016040529081600082018054610b01906121a1565b80601f0160208091040260200160405190810160405280929190818152602001828054610b2d906121a1565b8015610b7a5780601f10610b4f57610100808354040283529160200191610b7a565b820191906000526020600020905b815481529060010190602001808311610b5d57829003601f168201915b50505050508152602001600182018054610b93906121a1565b80601f0160208091040260200160405190810160405280929190818152602001828054610bbf906121a1565b8015610c0c5780601f10610be157610100808354040283529160200191610c0c565b820191906000526020600020905b815481529060010190602001808311610bef57829003601f168201915b50505050508152602001600282018054610c25906121a1565b80601f0160208091040260200160405190810160405280929190818152602001828054610c51906121a1565b8015610c9e5780601f10610c7357610100808354040283529160200191610c9e565b820191906000526020600020905b815481529060010190602001808311610c8157829003601f168201915b50505050508152505090508060400151604051602001610cbe9190612166565b6040516020818303038152906040528051906020012083604051602001610ce59190612166565b6040516020818303038152906040528051906020012014610d355760405162461bcd60e51b815260206004820152600a60248201526977726f6e6720636f646560b01b60448201526064016101e7565b505050565b60005b81518111610e3b5760006040518060600160405280848481518110610d6457610d646121db565b602002602001015160a0015181526020016000151581526020016000151581525090506008838381518110610d9b57610d9b6121db565b602002602001015160800151604051610db49190612166565b9081526040805160209281900383019020336000908152908352908120805460018101825590825291902082518392600202909101908190610df69082612321565b5060208201516001909101805460409093015115156101000261ff00199215159290921661ffff19909316929092171790555080610e3381612207565b915050610d3d565b5050565b6040805160608101825283815260208082018790528183018690526001600160a01b038816600090815260079091528290209151909190610e81908490612166565b908152604051602091819003820190208054600181018255600091825291902082518392600302909101908190610eb89082612321565b5060208201516001820190610ecd9082612321565b5060408201516002820190610ee29082612321565b50505080600586604051610ef69190612166565b90815260405190819003602001902081518190610f139082612321565b5060208201516001820190610f289082612321565b5060408201516002820190610f3d9082612321565b505050505050505050565b6000610f5382611698565b80519091506001600160a01b0316331480610f7d57503360009081526020819052604090205460ff165b610fb75760405162461bcd60e51b815260206004820152600b60248201526a61646d696e73206f6e6c7960a81b60448201526064016101e7565b60038160a00151604051610fcb9190612166565b90815260405190819003602001902080546001600160a01b0319168155600060018201819055600282018190556003820181905561100c6004830182611a32565b61101a600583016000611a32565b611028600683016000611a32565b611036600783016000611a32565b611044600883016000611a32565b505060006002826080015160405161105c9190612166565b9081526020016040518091039020805480602002602001604051908101604052809291908181526020016000905b828210156113cc57600084815260209081902060408051610120810182526009860290920180546001600160a01b03168352600181015493830193909352600283015490820152600382015460608201526004820180549192916080840191906110f3906121a1565b80601f016020809104026020016040519081016040528092919081815260200182805461111f906121a1565b801561116c5780601f106111415761010080835404028352916020019161116c565b820191906000526020600020905b81548152906001019060200180831161114f57829003601f168201915b50505050508152602001600582018054611185906121a1565b80601f01602080910402602001604051908101604052809291908181526020018280546111b1906121a1565b80156111fe5780601f106111d3576101008083540402835291602001916111fe565b820191906000526020600020905b8154815290600101906020018083116111e157829003601f168201915b50505050508152602001600682018054611217906121a1565b80601f0160208091040260200160405190810160405280929190818152602001828054611243906121a1565b80156112905780601f1061126557610100808354040283529160200191611290565b820191906000526020600020905b81548152906001019060200180831161127357829003601f168201915b505050505081526020016007820180546112a9906121a1565b80601f01602080910402602001604051908101604052809291908181526020018280546112d5906121a1565b80156113225780601f106112f757610100808354040283529160200191611322565b820191906000526020600020905b81548152906001019060200180831161130557829003601f168201915b5050505050815260200160088201805461133b906121a1565b80601f0160208091040260200160405190810160405280929190818152602001828054611367906121a1565b80156113b45780601f10611389576101008083540402835291602001916113b4565b820191906000526020600020905b81548152906001019060200180831161139757829003601f168201915b5050505050815250508152602001906001019061108a565b50505050905060005b81518111611496578260a001516040516020016113f29190612166565b6040516020818303038152906040528051906020012082828151811061141a5761141a6121db565b602002602001015160a001516040516020016114369190612166565b604051602081830303815290604052805190602001200361148457600283608001516040516114659190612166565b9081526020016040518091039020600061147f9190611ab1565b611496565b8061148e81612207565b9150506113d5565b5060016006846040516114a99190612166565b908152604051908190036020019020805491151560ff19909216919091179055505050565b606060006008836040516114e29190612166565b908152604080519182900360209081018320336000908152908252828120805480840286018401909452838552929184015b828210156115fe5783829060005260206000209060020201604051806060016040529081600082018054611547906121a1565b80601f0160208091040260200160405190810160405280929190818152602001828054611573906121a1565b80156115c05780601f10611595576101008083540402835291602001916115c0565b820191906000526020600020905b8154815290600101906020018083116115a357829003601f168201915b505050918352505060019182015460ff8082161515602080850191909152610100909204161515604090920191909152918352929092019101611514565b50929695505050505050565b600080611616836114ce565b905060005b8151811161168e57818181518110611635576116356121db565b6020908102919091018101510151158061166d575081818151811061165c5761165c6121db565b602090810291909101015160400151155b1561167c575060009392505050565b8061168681612207565b91505061161b565b5060019392505050565b6116f060405180610120016040528060006001600160a01b0316815260200160008152602001600081526020016000815260200160608152602001606081526020016060815260200160608152602001606081525090565b60006003836040516117029190612166565b9081526040805191829003602090810183206101208401835280546001600160a01b031684526001810154918401919091526002810154918301919091526003810154606083015260048101805460808401919061175f906121a1565b80601f016020809104026020016040519081016040528092919081815260200182805461178b906121a1565b80156117d85780601f106117ad576101008083540402835291602001916117d8565b820191906000526020600020905b8154815290600101906020018083116117bb57829003601f168201915b505050505081526020016005820180546117f1906121a1565b80601f016020809104026020016040519081016040528092919081815260200182805461181d906121a1565b801561186a5780601f1061183f5761010080835404028352916020019161186a565b820191906000526020600020905b81548152906001019060200180831161184d57829003601f168201915b50505050508152602001600682018054611883906121a1565b80601f01602080910402602001604051908101604052809291908181526020018280546118af906121a1565b80156118fc5780601f106118d1576101008083540402835291602001916118fc565b820191906000526020600020905b8154815290600101906020018083116118df57829003601f168201915b50505050508152602001600782018054611915906121a1565b80601f0160208091040260200160405190810160405280929190818152602001828054611941906121a1565b801561198e5780601f106119635761010080835404028352916020019161198e565b820191906000526020600020905b81548152906001019060200180831161197157829003601f168201915b505050505081526020016008820180546119a7906121a1565b80601f01602080910402602001604051908101604052809291908181526020018280546119d3906121a1565b8015611a205780601f106119f557610100808354040283529160200191611a20565b820191906000526020600020905b815481529060010190602001808311611a0357829003601f168201915b50505091909252509195945050505050565b508054611a3e906121a1565b6000825580601f10611a4e575050565b601f016020900490600052602060002090810190611a6c9190611ad2565b50565b5080546000825560030290600052602060002090810190611a6c9190611aeb565b5080546000825560020290600052602060002090810190611a6c9190611b24565b5080546000825560090290600052602060002090810190611a6c9190611b4e565b5b80821115611ae75760008155600101611ad3565b5090565b80821115611ae7576000611aff8282611a32565b611b0d600183016000611a32565b611b1b600283016000611a32565b50600301611aeb565b80821115611ae7576000611b388282611a32565b5060018101805461ffff19169055600201611b24565b80821115611ae75780546001600160a01b03191681556000600182018190556002820181905560038201819055611b886004830182611a32565b611b96600583016000611a32565b611ba4600683016000611a32565b611bb2600783016000611a32565b611bc0600883016000611a32565b50600901611b4e565b634e487b7160e01b600052604160045260246000fd5b604051610120810167ffffffffffffffff81118282101715611c0357611c03611bc9565b60405290565b604051601f8201601f1916810167ffffffffffffffff81118282101715611c3257611c32611bc9565b604052919050565b600082601f830112611c4b57600080fd5b813567ffffffffffffffff811115611c6557611c65611bc9565b611c78601f8201601f1916602001611c09565b818152846020838601011115611c8d57600080fd5b816020850160208301376000918101602001919091529392505050565b600060208284031215611cbc57600080fd5b813567ffffffffffffffff811115611cd357600080fd5b611cdf84828501611c3a565b949350505050565b60008060008060808587031215611cfd57600080fd5b843567ffffffffffffffff811115611d1457600080fd5b611d2087828801611c3a565b97602087013597506040870135966060013595509350505050565b80356001600160a01b0381168114611d5257600080fd5b919050565b600060208284031215611d6957600080fd5b611d7282611d3b565b9392505050565b60008060008060008060c08789031215611d9257600080fd5b611d9b87611d3b565b9550602087013567ffffffffffffffff80821115611db857600080fd5b611dc48a838b01611c3a565b96506040890135915080821115611dda57600080fd5b611de68a838b01611c3a565b95506060890135915080821115611dfc57600080fd5b611e088a838b01611c3a565b94506080890135915080821115611e1e57600080fd5b611e2a8a838b01611c3a565b935060a0890135915080821115611e4057600080fd5b50611e4d89828a01611c3a565b9150509295509295509295565b60008060408385031215611e6d57600080fd5b611e7683611d3b565b946020939093013593505050565b60008060408385031215611e9757600080fd5b823567ffffffffffffffff80821115611eaf57600080fd5b611ebb86838701611c3a565b93506020850135915080821115611ed157600080fd5b50611ede85828601611c3a565b9150509250929050565b60006020808385031215611efb57600080fd5b823567ffffffffffffffff80821115611f1357600080fd5b818501915085601f830112611f2757600080fd5b813581811115611f3957611f39611bc9565b8060051b611f48858201611c09565b9182528381018501918581019089841115611f6257600080fd5b86860192505b8383101561209b57823585811115611f7f57600080fd5b8601610120818c03601f1901811315611f9757600080fd5b611f9f611bdf565b611faa8a8401611d3b565b815260408301358a820152606083013560408201526080830135606082015260a083013588811115611fdb57600080fd5b611fe98e8c83870101611c3a565b60808301525060c08301358881111561200157600080fd5b61200f8e8c83870101611c3a565b60a08301525060e0830135888111156120285760008081fd5b6120368e8c83870101611c3a565b60c08301525061010080840135898111156120515760008081fd5b61205f8f8d83880101611c3a565b60e0840152509183013591888311156120785760008081fd5b6120868e8c85870101611c3a565b90820152845250509186019190860190611f68565b9998505050505050505050565b600080600080600060a086880312156120c057600080fd5b6120c986611d3b565b9450602086013567ffffffffffffffff808211156120e657600080fd5b6120f289838a01611c3a565b9550604088013591508082111561210857600080fd5b61211489838a01611c3a565b9450606088013591508082111561212a57600080fd5b61213689838a01611c3a565b9350608088013591508082111561214c57600080fd5b5061215988828901611c3a565b9150509295509295909350565b6000825160005b81811015612187576020818601810151858301520161216d565b81811115612196576000828501525b509190910192915050565b600181811c908216806121b557607f821691505b6020821081036121d557634e487b7160e01b600052602260045260246000fd5b50919050565b634e487b7160e01b600052603260045260246000fd5b634e487b7160e01b600052601160045260246000fd5b600060018201612219576122196121f1565b5060010190565b600080821280156001600160ff1b0384900385131615612242576122426121f1565b600160ff1b839003841281161561225b5761225b6121f1565b50500190565b600080835461226f816121a1565b60018281168015612287576001811461229c576115fe565b60ff19841687528215158302870194506115fe565b8760005260208060002060005b858110156122c25781548a8201529084019082016122a9565b505050959091019695505050505050565b601f821115610d3557600081815260208120601f850160051c810160208610156122fa5750805b601f850160051c820191505b8181101561231957828155600101612306565b505050505050565b815167ffffffffffffffff81111561233b5761233b611bc9565b61234f8161234984546121a1565b846122d3565b602080601f831160018114612384576000841561236c5750858301515b600019600386901b1c1916600185901b178555612319565b600085815260208120601f198616915b828110156123b357888601518255948401946001909101908401612394565b50858210156123d15787850151600019600388901b60f8161c191681555b5050505050600190811b01905550565b6000828210156123f3576123f36121f1565b50039056fea2646970667358221220b5759902d2814bc9d43e14ae79cecc3e7c75df5dd00d75a98d7fe3f29886bb6d64736f6c634300080f0033",
  "linkReferences": {},
  "deployedLinkReferences": {}
}